:100000004BC000007AC2000078C2000076C2000037
:1000100074C200000C948B4E70C200006EC20000CF
:100020006CC200006AC200000C94814E0C94774EA2
:1000300064C2000062C2000060C200005EC2000034
:100040005CC200005AC2000058C2000056C2000044
:1000500054C200000C943B4F50C200004EC200003E
:100060004CC200004AC2000048C2000046C2000064
:1000700044C2000042C2000040C200003EC2000074
:100080003CC200003AC2000038C2000036C2000084
:1000900034C2000032C2000011241FBECFEFD0E2F4
:1000A000DEBFCDBF0E9400F00FC20000F81EDB1EB5
:1000B000FD1ED61EBB1EBB1EB61E111BA71E701E2C
:1000C000111B111B111B111B111B111B111B111BD0
:1000D000681E821F8F1F731F601FBB1F451E471F97
:1000E000571E361F1A1FB22EB52EB82EB82EC42E8C
:1000F000CD2ECD2ECD2EE32EE62EE92EEC2EEF2E9C
:10010000F22EA92EAF2E6037B9360B37333823388D
:100110000138EE37C1379E37953767370763423668
:10012000B79BD8A71A39685618AEBAAB558C1D3C88
:10013000B7CC5763BD6DEDFD753EF6177231BF004C
:100140000000803F05A84CCDB2D44EB93836A90284
:100150000C50B9918688083CA6AAAA2ABE000000C5
:10016000803F08000000BE922449123EABAAAA2A92
:10017000BECDCCCC4C3E00000080BEABAAAAAA3EAD
:1001800000000000BF000000803F000000000008E9
:100190004178D3BB4387D1133D190E3CC3BD428286
:1001A000AD2B3E68EC8276BED98FE1A93E4C80EF44
:1001B000FFBE01C4FF7F3F0000000000FF0C0B0BDF
:1001C0000B0A0A09090908080808070707060606AE
:1001D00006060505050505040404040404030303D9
:1001E00003030303030202020202020202020202EA
:1001F00001010101010101010101010101010101EF
:1002000001010100000000000000000000000000EB
:1002100000000000000000000000000000000000DE
:1002200000000000000000000000000000000000CE
:1002300000000000000000000000000000000000BE
:1002400000000000000000000000000000000000AE
:10025000000000000000000000000000000000009E
:10026000000000000000000000000000000000008E
:10027000000000000000000000000000000000007E
:10028000000000000000000000000000000000006E
:10029000000000000000000000000000000000005E
:1002A000000000000000000000000000000000004E
:1002B000000000000000000000000000FF59E97D80
:1002C00015B150F39942EE9D4F04BC7632F1B276EF
:1002D0003B03CC98653405D8AC8259320CE7C4A2F4
:1002E0008161432509EDD3B9A089725C46321E0BAA
:1002F000F8E6D5C4B4A596887A6D6053473C30269D
:100300001B1108FEF5EDE4DCD4CDC6BFB8B1ABA53A
:100310009F99948F8A85807C77736F6B6763605D2C
:10032000595653504D4A484543403E3C3A3836347E
:1003300032302E2D2B2A282725242321201F1E1D55
:100340001C1B1A1918171616151413131211111055
:100350000F0F0E0E0D0D0C0C0B0B0B0A0A090909E1
:100360000808080807070706060606060505050526
:100370000504040404040403030303030303030246
:100380000202020202020202020201010101010153
:100390000101010101010101010101010100000050
:1003A000000000000000000000000000000000004D
:1003B000000000000000000000000000FF004C8A68
:1003C00097509545406BA6D8E4B2282EAE90BF2634
:1003D000B14EE86FD0FBE0709A51862C37984532C9
:1003E000539D06840D971A8CE61E2E0DB41D4016E3
:1003F0009AC591F9F786A142660620AFAE19EE279D
:10040000C2BB0EBAB90AAA95CA45040444C1796AA6
:1004100091EE7D3E2E4C960BA96E5A6A9FF56D05A6
:10042000BB8F808DB4F54FC14AE99E674536394F81
:1004300075ADF44CB227A939D78036F7C49C7E6AD3
:10044000605F677992B4DD0E4786CD1A6DC6258A46
:10045000F464D953D154DB67F78B22BD5CFEA44D05
:10046000F9A7590EC57E3BF9BA7D430AD39F6C3B71
:100470000BDEB2875E3710ECC8A6856546290CF105
:10048000D6BCA38C755E4934200DFAE9D7C7B6A750
:10049000988A7C6E6155493D32271D1209FFF6EEA0
:1004A000E5DDD5CEC6BFB9B2ACA6A09A958F8A8538
:1004B000817C78736F6B6864605D5A5611241FBE2F
:1004C000CFEFD0E2DEBFCDBF2EE1A8E7BCE001C098
:1004D0001D92AD34B207E1F71CE0A0E0B1E0E6E424
:1004E000F9EB00E00BBF02C007900D92A837B107EF
:1004F000D9F70E94724F0C94A15C82CD2F923F924B
:100500004F925F926F927F928F929F92AF92BF9223
:10051000CF92DF92EF92FF920F931F93CF93DF93CF
:10052000CDB7DEB728970FB6F894DEBF0FBECDBFAC
:100530008EEE95E10E9495368091BA1680FD02C03C
:100540000C94630B85FD02C00C94C80B412C512CFC
:1005500084FF02C00C94D20BE0900416F0900516B4
:10056000F594E79481FF02C00C946B0B812C912CC5
:10057000540182FF02C00C94770B0FEF1FEF8091A4
:10058000CB16823011F00C948B0B80911F1690913A
:10059000201695958795E80EF91EC090DE16D0902E
:1005A000DF16A60160E070E05058610971094B83C5
:1005B0005C836D837E838091B616882311F40C943E
:1005C000260C8091F0169091F116A0E0B0E09058C2
:1005D000A109B109B7FF02C00C94E30DB595A79529
:1005E0009795879598878F833FB6F89486EF93E128
:1005F0000E94BD4860911A1470911B147A8369831C
:10060000662457FC6094762C6701EE24D7FCE094B6
:10061000FE2C8091301690913116A7019601280F7B
:10062000391F411D511DDA01C901009731E0A307AF
:10063000B10524F08FEF9FEFA0E0B0E0B7FF02C05C
:100640000C942F0C0E94AC1086EC81BB469A81E082
:1006500085B985E488B980EF8BB982EA8EB987E8DD
:1006600081BB00C000C086EC81BB469A81E085B9A1
:1006700085E488B980ED8BB982EA8EB987E881BBC1
:1006800000C000C086EC81BB469A81E085B985E454
:1006900088B980EF8BB982EA8EB987E881BB4F8138
:1006A000588569817A81AA27469FB12D5703C001D9
:1006B000749FB00D811D9A1F56039A0BB00D811DBA
:1006C0009A1F1124AA2797FDA095BA2F840D951D76
:1006D000A61DB71D2091241630912516820F931F59
:1006E000A11DB11D009771E0A707B10524F08FEFA0
:1006F0009FEFA0E0B0E0B7FF02C00C942A0C0E946C
:10070000AC1086EC81BB469A81E085B981E488B95A
:1007100080EF8BB980EA8EB987E881BB00C000C04A
:1007200086EC81BB469A81E085B981E488B980ED89
:100730008BB980EA8EB987E881BB00C000C086EC27
:1007400081BB469A81E085B981E488B980EF8BB995
:1007500080EA8EB987E881BB2B813C8169817A81EF
:10076000AA27269FB12D3703A001729FB00D411D0E
:100770005A1F36035A0BB00D411D5A1F112466270C
:1007800057FD6095762F480D591D6A1D7B1D809180
:100790003C1690913D16480F591F611D711D8091A7
:1007A0006C1690916D16A0E0B0E084179507A6072F
:1007B000B70714F00C94E70BAC01BD01CA010E940D
:1007C000AC1086EC81BB469A81E085B981E488B99A
:1007D00080EF8BB982EA8EB987E881BB00C000C088
:1007E00086EC81BB469A81E085B981E488B980EEC8
:1007F0008BB982EA8EB987E881BB00C000C086EC65
:1008000081BB469A81E085B981E488B980EF8BB9D4
:1008100082EA8EB987E881BB82EF94E10E94BD48ED
:10082000B80180911615909117150E948A14A0E0C6
:10083000B0E00097A105B10509F4C6C79D5FAF4FB1
:10084000BF4F009771E0A707B10524F08FEF9FEF2E
:10085000A0E0B0E00E94AC1086EC81BB469A81E03B
:1008600085B985E488B980EF8BB980EA8EB987E8CD
:1008700081BB00C000C086EC81BB469A81E085B98F
:1008800085E488B980EB8BB980EA8EB987E881BBB3
:1008900000C000C086EC81BB469A81E085B985E442
:1008A00088B980EF8BB980EA8EB987E881BB3FBEFB
:1008B0002FB72983F89480E294E10E94BD482090EC
:1008C0004414309045148091321690913316B7013C
:1008D000A601480F591F611D711D4115510531E0D9
:1008E0006307710524F04FEF5FEF60E070E0DB011C
:1008F000CA0177FF01C083C70E94AC1086EC81BBA0
:10090000469A81E085B987E488B980EF8BB982EA9D
:100910008EB987E881BB00C000C086EC81BB469AD7
:1009200081E085B987E488B980ED8BB982EA8EB918
:1009300087E881BB00C000C086EC81BB469A81E09D
:1009400085B987E488B980EF8BB982EA8EB987E8E8
:1009500081BB2F813885B101AA27269FB12D37038E
:10096000A001729FB00D411D5A1F36035A0BB00DE6
:10097000411D5A1F1124662757FD6095762F440D9F
:10098000551D661D771D8091261690912716480FDC
:10099000591F611D711D4115510581E068077105E1
:1009A00024F04FEF5FEF60E070E0DB01CA0177FDFC
:1009B00036C70E94AC1086EC81BB469A81E085B9AF
:1009C00083E488B980EF8BB980EA8EB987E881BB70
:1009D00000C000C086EC81BB469A81E085B983E403
:1009E00088B980ED8BB980EA8EB987E881BB00C0F9
:1009F00000C086EC81BB469A81E085B983E488B962
:100A000080EF8BB980EA8EB987E881BB2B813C816E
:100A1000B101AA27269FB12D3703A001729FB00D07
:100A2000411D5A1F36035A0BB00D411D5A1F112488
:100A3000662757FD6095762F480D591D6A1D7B1D51
:100A400080913E1690913F16480F591F611D711DF0
:100A500080916E1690916F16A0E0B0E08417950714
:100A6000A607B70724F077FDE5C6DB01CA010E949F
:100A7000AC1086EC81BB469A81E085B983E488B9E5
:100A800080EF8BB982EA8EB987E881BB00C000C0D5
:100A900086EC81BB469A81E085B983E488B980EE13
:100AA0008BB982EA8EB987E881BB00C000C086ECB2
:100AB00081BB469A81E085B983E488B980EF8BB920
:100AC00082EA8EB987E881BB8CE195E10E94BD483E
:100AD0002091401530914115AA27209FB12D319FBB
:100AE000C001129FB00D811D9A1F309FB00D811D56
:100AF0009A1F1124A0E0B0E00097A105B10509F408
:100B000060C69D5FAF4FBF4F009771E0A707B1056B
:100B100024F08FEF9FEFA0E0B0E00E94AC1086ECD5
:100B200081BB469A81E085B987E488B980EF8BB9AB
:100B300080EA8EB987E881BB00C000C086EC81BB2B
:100B4000469A81E085B987E488B980EB8BB980EA61
:100B50008EB987E881BB00C000C086EC81BB469A95
:100B600081E085B987E488B980EF8BB980EA8EB9D6
:100B700087E881BB29812FBF3FB73983F8948AE486
:100B800094E10E94BD4820906E1430906F148091C3
:100B9000341690913516B701A601480F591F611DF3
:100BA000711D4115510581E06807710524F04FEF73
:100BB0005FEF60E070E0DB01CA0177FD2CC60E94A8
:100BC000AC1086EC81BB469A81E085B981E488B996
:100BD00080EF8BB980EA8EB987E881BB00C000C086
:100BE00086EC81BB469A81E085B981E488B980EEC4
:100BF0008BB980EA8EB987E881BB00C000C086EC63
:100C000081BB469A81E085B981E488B980EF8BB9D0
:100C100080EA8EB987E881BB2F813885B101AA2788
:100C2000269FB12D3703A001729FB00D411D5A1FA1
:100C300036035A0BB00D411D5A1F1124662757FD6C
:100C40006095762F440D551D661D771D80912816E1
:100C500090912916480F591F611D711D41155105AD
:100C600081E06807710524F04FEF5FEF60E070E00E
:100C7000DB01CA0177FDC7C50E94AC1086EC81BBC1
:100C8000469A81E085B985E488B980EF8BB980EA1E
:100C90008EB987E881BB00C000C086EC81BB469A54
:100CA00081E085B985E488B980ED8BB980EA8EB999
:100CB00087E881BB00C000C086EC81BB469A81E01A
:100CC00085B985E488B980EF8BB980EA8EB987E869
:100CD00081BB2B813C81B101AA27269FB12D37030F
:100CE000A001729FB00D411D5A1F36035A0BB00D63
:100CF000411D5A1F1124662757FD6095762F480D18
:100D0000591D6A1D7B1D8091401690914116480F18
:100D1000591F611D711D8091701690917116A0E090
:100D2000B0E084179507A607B70724F077FD7FC5C5
:100D3000DB01CA010E94AC1086EC81BB469A81E0BF
:100D400085B985E488B980EF8BB982EA8EB987E8E6
:100D500081BB00C000C086EC81BB469A81E085B9AA
:100D600085E488B980EE8BB982EA8EB987E881BBC9
:100D700000C000C086EC81BB469A81E085B985E45D
:100D800088B980EF8BB982EA8EB987E881BB86E4A7
:100D900095E10E94BD48B80180916A1590916B154C
:100DA0000E948A14A0E0B0E00097A105B10509F403
:100DB00005C59D5FAF4FBF4F009771E0A707B10515
:100DC00024F08FEF9FEFA0E0B0E00E94AC1086EC23
:100DD00081BB469A81E085B981E488B980EF8BB9FF
:100DE00082EA8EB987E881BB00C000C086EC81BB77
:100DF000469A81E085B981E488B980EB8BB982EAB3
:100E00008EB987E881BB00C000C086EC81BB469AE2
:100E100081E085B981E488B980EF8BB982EA8EB927
:100E200087E881BB29812FBF3FB73983F89484E7D6
:100E300094E10E94BD4820909814309099148091BC
:100E4000361690913716B701A601480F591F611D3C
:100E5000711D4115510581E06807710524F04FEFC0
:100E60005FEF60E070E0DB01CA0177FDD0C40E9453
:100E7000AC1086EC81BB469A81E085B983E488B9E1
:100E800080EF8BB980EA8EB987E881BB00C000C0D3
:100E900086EC81BB469A81E085B983E488B980EE0F
:100EA0008BB980EA8EB987E881BB00C000C086ECB0
:100EB00081BB469A81E085B983E488B980EF8BB91C
:100EC00080EA8EB987E881BB2F813885B101AA27D6
:100ED000269FB12D3703A001729FB00D411D5A1FEF
:100EE00036035A0BB00D411D5A1F1124662757FDBA
:100EF0006095762F440D551D661D771D80912A162D
:100F000090912B16480F591F611D711D41155105F8
:100F100081E06807710524F04FEF5FEF60E070E05B
:100F2000DB01CA0177FD63C40E94AC1086EC81BB73
:100F3000469A81E085B987E488B980EF8BB980EA69
:100F40008EB987E881BB00C000C086EC81BB469AA1
:100F500081E085B987E488B980ED8BB980EA8EB9E4
:100F600087E881BB00C000C086EC81BB469A81E067
:100F700085B987E488B980EF8BB980EA8EB987E8B4
:100F800081BB2B813C81B101AA27269FB12D37035C
:100F9000A001729FB00D411D5A1F36035A0BB00DB0
:100FA000411D5A1F1124662757FD6095762F480D65
:100FB000591D6A1D7B1D8091421690914316480F62
:100FC000591F611D711D8091721690917316A0E0DA
:100FD000B0E084179507A607B70724F077FD30C463
:100FE000DB01CA010E94AC1086EC81BB469A81E00D
:100FF00085B987E488B980EF8BB982EA8EB987E832
:1010000081BB00C000C086EC81BB469A81E085B9F7
:1010100087E488B980EE8BB982EA8EB987E881BB14
:1010200000C000C086EC81BB469A81E085B987E4A8
:1010300088B980EF8BB982EA8EB987E881BB80E7F7
:1010400095E10E94BD48B801809194159091951545
:101050000E948A14A0E0B0E00097A105B10509F450
:10106000AAC39D5FAF4FBF4F009771E0A707B105BF
:1010700024F08FEF9FEFA0E0B0E00E94AC1086EC70
:1010800081BB469A81E085B983E488B980EF8BB94A
:1010900082EA8EB987E881BB00C000C086EC81BBC4
:1010A000469A81E085B983E488B980EB8BB982EAFE
:1010B0008EB987E881BB00C000C086EC81BB469A30
:1010C00081E085B983E488B980EF8BB982EA8EB973
:1010D00087E881BB29812FBF3FB73983F8948EE918
:1010E00094E10E94BD482090C2143090C3148091B6
:1010F000381690913916B701A601480F591F611D86
:10110000711D4115510581E06807710524F04FEF0D
:101110005FEF60E070E0DB01CA0177FD64C30E940D
:10112000AC1086EC81BB469A81E085B985E488B92C
:1011300080EF8BB980EA8EB987E881BB00C000C020
:1011400086EC81BB469A81E085B985E488B980EE5A
:101150008BB980EA8EB987E881BB00C000C086ECFD
:1011600081BB469A81E085B985E488B980EF8BB967
:1011700080EA8EB987E881BB2F813885B101AA2723
:10118000269FB12D3703A001729FB00D411D5A1F3C
:1011900036035A0BB00D411D5A1F1124662757FD07
:1011A0006095762F440D551D661D771D80912C1678
:1011B00090912D16480F591F611D711D4115510544
:1011C00081E06807710524F04FEF5FEF60E070E0A9
:1011D000DB01CA0177FD0FC3BFD786EC81BB469AFE
:1011E00081E085B981E488B980EF8BB982EA8EB954
:1011F00087E881BB00C000C086EC81BB469A81E0D5
:1012000085B981E488B980ED8BB982EA8EB987E827
:1012100081BB00C000C086EC81BB469A81E085B9E5
:1012200081E488B980EF8BB982EA8EB987E881BB07
:101230002B813C81B101AA27269FB12D3703A00144
:10124000729FB00D411D5A1F36035A0BB00D411D40
:101250005A1F1124662757FD6095762F480D591D9A
:101260006A1D7B1D8091441690914516480F591FA9
:10127000611D711D8091741690917516A0E0B0E00B
:1012800084179507A607B70724F077FDDCC2DB01BA
:10129000CA0162D786EC81BB469A81E085B981E4B8
:1012A00088B980EF8BB980EA8EB987E881BB00C02E
:1012B00000C086EC81BB469A81E085B981E488B99B
:1012C00080EB8BB980EA8EB987E881BB00C000C093
:1012D00086EC81BB469A81E085B981E488B980EFCC
:1012E0008BB980EA8EB987E881BB8AE995E10E94D3
:1012F000BD48B8018091BE159091BF150E948A1417
:10130000A0E0B0E00097A105B10509F451C29D5FCE
:10131000AF4FBF4F009771E0A707B10524F08FEFE3
:101320009FEFA0E0B0E018D786EC81BB469A81E041
:1013300085B985E488B980EF8BB982EA8EB987E8F0
:1013400081BB00C000C086EC81BB469A81E085B9B4
:1013500085E488B980EB8BB982EA8EB987E881BBD6
:1013600000C000C086EC81BB469A81E085B985E467
:1013700088B980EF8BB982EA8EB987E881BB298171
:101380002FBF3FB73983F89488EC94E10E94BD48A1
:101390002090EC143090ED1480913A1690913B1609
:1013A000B701A601480F591F611D711D4115510557
:1013B00081E06807710524F04FEF5FEF60E070E0B7
:1013C000DB01CA0177FD0BC2C7D686EC81BB469A0A
:1013D00081E085B987E488B980EF8BB980EA8EB95E
:1013E00087E881BB00C000C086EC81BB469A81E0E3
:1013F00085B987E488B980EE8BB980EA8EB987E831
:1014000081BB00C000C086EC81BB469A81E085B9F3
:1014100087E488B980EF8BB980EA8EB987E881BB11
:101420004F815885B101AA27469FB12D57039001DE
:10143000749FB00D211D3A1F56033A0BB00D211DAC
:101440003A1F1124A901662757FD6095762F440D98
:10145000551D661D771D80912E1690912F16480FF1
:10146000591F611D711D4115510581E06807710506
:1014700024F04FEF5FEF60E070E0DB01CA0177FD21
:10148000D2C16AD686EC81BB469A81E085B983E4F5
:1014900088B980EF8BB982EA8EB987E881BB00C03A
:1014A00000C086EC81BB469A81E085B983E488B9A7
:1014B00080ED8BB982EA8EB987E881BB00C000C09D
:1014C00086EC81BB469A81E085B983E488B980EFD8
:1014D0008BB982EA8EB987E881BB2B813C81B1014F
:1014E000AA27269FB12D3703A001729FB00D411D81
:1014F0005A1F36035A0BB00D411D5A1F112466277F
:1015000057FD6095762F480D591D6A1D7B1D8091F2
:10151000461690914716480F591F611D711D809105
:10152000761690917716A0E0B0E084179507A6078D
:10153000B70724F077FD81C1DB01CA010DD686EC27
:1015400081BB469A81E085B983E488B980EF8BB985
:1015500080EA8EB987E881BB00C000C086EC81BB01
:10156000469A81E085B983E488B980EB8BB980EA3B
:101570008EB987E881BB00C000C086EC81BB469A6B
:1015800081E085B983E488B980EF8BB980EA8EB9B0
:1015900087E881BB84EC95E10E94BD48B801809149
:1015A000E8159091E9150E948A14A0E0B0E0009738
:1015B000A105B10509F4F9C09D5FAF4FBF4F00977A
:1015C00071E0A707B10524F08FEF9FEFA0E0B0E036
:1015D000C3D586EC81BB469A81E085B987E488B99A
:1015E00080EF8BB982EA8EB987E881BB00C000C06A
:1015F00086EC81BB469A81E085B987E488B980EBA7
:101600008BB982EA8EB987E881BB00C000C086EC46
:1016100081BB469A81E085B987E488B980EF8BB9B0
:1016200082EA8EB987E881BB29812FBF20917C0C8B
:10163000922F9C7111E009F010E0922F937092307C
:1016400009F412C1933009F463C2913009F4B4C1B2
:101650001111C2C20E94C6238AE390E10E94B62300
:1016600081116FC28091780C9091790CA0917A0CC5
:10167000B0917B0C0196A11DB11D8093780C9093C5
:10168000790CA0937A0CB0937B0C20917C0C2F5F8B
:1016900020937C0C28960FB6F894DEBF0FBECDBF0A
:1016A000DF91CF911F910F91FF90EF90DF90CF903E
:1016B000BF90AF909F908F907F906F905F904F9072
:1016C0003F902F900895E12CF12C412C512C81FD5D
:1016D00002C00C94B6028090041690900516AA24BD
:1016E00097FCA094BA2C82FD02C00C94BD0280919C
:1016F000FE159091FF15969587950091041610910F
:101700000516081B190B015011098091CB16823068
:1017100011F40C94C502833088F4882309F447C27D
:10172000813011F00C94CD0280911F1690912016FB
:1017300095958795480E591E0C94CD02833009F477
:1017400027C2843011F00C94CD02409108175091BB
:10175000091760911F1670912016CB01AA2797FDDB
:10176000A095BA2F840F951FA11DB11DB7FD68C2AA
:10177000BC01CD016115710521E08207910524F0BE
:101780006FEF7FEF80E090E08DE14AD60C94CD02C0
:1017900040900416509005165594479484FD02C05D
:1017A0000C94AC02E12CF12C92CF80E090E010CFB1
:1017B00080E090E0B8CD80E090E05FCC80E090E009
:1017C00004CB80E090E0A9C980E090E043C877FDB9
:1017D00002C00C94DE0380E090E00C94DF0380E014
:1017E00090E0DC01F1CD80E090E0DC0198CC80E07D
:1017F00090E0DC0199CB80E090E0DC01EDCC80E072
:1018000090E0DC0179C880E090E0DC0135CA80E03E
:1018100090E0DC012CCB80E090E0DC01D0C980E0DE
:1018200090E0DC01C6C880E090E0DC012ACE80E0D8
:1018300090E080CA80E090E01AC980E090E07ECE1F
:1018400080E090E0CFCB80E090E023CD18861F822F
:101850000C94F40280E090E0DC010C947F0380E0C3
:1018600090E0DC010C94220389E096E10E94953619
:10187000E091BA16FE2FF8703091B1162091B4168F
:10188000311158C14FEF5FEF60E070E08091A21618
:101890009091A316AA2797FDA095BA2F840F951FA4
:1018A000A61FB71F222309F493C1C090D616D0906B
:1018B000D716E12CF12CFF2341F0332311F0E5FF83
:1018C000AAC1222311F0E4FF99C11FB7F894009731
:1018D000E1E0AE07B10524F08FEF9FEFA0E0B0E0AC
:1018E000B7FDAAC139D486EC81BB469A81E085B99F
:1018F00081E488B980EF8BB982EA8EB987E881BB31
:1019000000C000C086EC81BB469A81E085B981E4C5
:1019100088B980E78BB982EA8EB987E881BB00C0BD
:1019200000C086EC81BB469A81E085B981E488B924
:1019300080EF8BB982EA8EB987E881BBD701C601F7
:10194000C114D104F1E0EF06F10424F08FEF9FEF12
:10195000A0E0B0E0B7FD6CC1FFD386EC81BB469A36
:1019600081E085B987E488B980EF8BB982EA8EB9C6
:1019700087E881BB00C000C086EC81BB469A81E04D
:1019800085B987E488B980E78BB982EA8EB987E8A0
:1019900081BB00C000C086EC81BB469A81E085B95E
:1019A00087E488B980EF8BB982EA8EB987E881BB7A
:1019B0001FBF20917C0C6BCE0E94072B8091651875
:1019C000882309F4B1C08091AD16882339F1815084
:1019D0008093AD162091F4133091F5132F3F4FEF04
:1019E0003407E1F08091F2139091F31301969093F4
:1019F000F3138093F2138217930780F01092F3137E
:101A00001092F2138091A00E882309F4E8C00E947E
:101A1000FE348091391081110E94EE358091A61616
:101A2000882309F47EC02091A4163091A51608E4FD
:101A300016E184E2882E86E1982EACE3B6E160E6FA
:101A400076E190E3A92E96E1B92E44E556E1D12C3A
:101A500042C0E81AF90A2E153F0508F47901E80E8C
:101A6000F91EF401F182E082FA01E190F190AF01F8
:101A7000F501808191818E159F0508F077C0E81AE5
:101A8000F90A2E153F0508F47901E80EF91EF50153
:101A9000F182E082FB01E190F190BF018D919C9178
:101AA00011978E159F0508F04FC0E81AF90A2E15F8
:101AB0003F0508F47901E80EF91E1196FC92EE92AA
:101AC000D394F2E08F0E911C129682E0A80EB11C06
:101AD00096E0D91631F1F801E190F1908F01F4010F
:101AE000808191818E159F0508F4B3CFE816F90621
:101AF00008F0BACFFC01EE19FF097F012E173F074E
:101B000008F479018E199F09F40191838083ACCF89
:101B100022FDBDCD812F0E94BC19812FC5D111118D
:101B200064C020917C0CB3CD8091AD16882309F45C
:101B300051CF4DCF4091D0165091D11660E070E05A
:101B4000A5CE0E94A2218ECDE816F90608F0B8CFE6
:101B5000FC01EE19FF097F012E173F0708F47901F8
:101B60008E199F0911969C938E93AACFE816F906B9
:101B700008F090CFFC01EE19FF097F012E173F07F7
:101B800008F479018E199F09F5019183808382CF32
:101B900080911F16909120164091191650911A1697
:101BA000841B950B0197080F191F0C94CD0280918F
:101BB0001F169091201695958795480E591EE80E90
:101BC000F91E0C94CD020196A11DB11D0C94EE02DC
:101BD000C12CD12C76016FCE0E94B4383BCD8091C0
:101BE000280F882309F415CF12CF80913917882345
:101BF00009F497CF81508093391793CF4091041601
:101C000050910516662757FD6095762FC40ED51E98
:101C1000E61EF71E5ACE409104165091051666270F
:101C200057FD6095762F840F951FA61FB71F49CECD
:101C300080E090E0DC0190CE80E090E0DC0152CECC
:101C400080E090E0DC0194CD80913B1A8F5F80931F
:101C50003B1A089590913A1A982B60959623909389
:101C60003A1A86EC81BB469A492F440F892F8695F4
:101C7000392F331F3327331F242F2670322B306424
:101C8000242F207C9071292B942F990F9072292B4F
:101C90008270806C91E095B938B92BB98EB987E81C
:101CA00081BB85E08A95F1F700008091391A8F5F3A
:101CB0008093391A089536EC20EE97E0A0E8F7E417
:101CC000E7EE77EF62EE5FB7F89431BB469A27B93B
:101CD0009AB92DB915B8A8B99BB91EB8F1BB42E0A5
:101CE0004A95F1F700C046B1B9B1BCB131BB479AD2
:101CF000E7B97AB96DB95FBF55E05A95F1F70000C1
:101D000042FFE1CF4FB7F89496EC91BB469A382F3B
:101D1000330F982F9695232F26702068582F551F24
:101D20005527551F252B80718360532F507C852BA1
:101D3000330F3072832B9270906215B828B98BB92B
:101D40009EB987E881BB85E08A95F1F700004FBF17
:101D50000895CF92DF92EF92FF920F931F93CF934C
:101D6000DF9390E040E452E46FE070E0F6ECE0EEE8
:101D700027E0D22EEE24E39430E4F32E00E217E4C1
:101D8000D7EEC7EFB2EE05C04115510561057105EB
:101D900071F1F1BB469AE7B9DAB8EDB9E5B8F8B830
:101DA0001BB80EB911BB22E02A95F1F700C0A6B10D
:101DB000C9B0CCB0F1BB479AD7B9CAB9BDB9415087
:101DC000510961097109A2FB222720F930E082172D
:101DD0009307D1F6452B462B472B49F0DF91CF9146
:101DE0001F910F91FF90EF90DF90CF900895DF91BA
:101DF000CF911F910F91FF90EF90DF90CF9024CF64
:101E0000DF92EF92FF920F931F93CF93DF9390E0B7
:101E100040E452E46FE070E0F6ECE0EEA7E0DA2E8A
:101E2000EE24E394B0E4FB2E00E217E4D7EEC7EF14
:101E3000B2EE05C0411551056105710569F1F1BBAF
:101E4000469AE7B9DAB8EDB9E5B8F8B81BB80EB9F3
:101E500011BB22E02A95F1F700C0A6B1A9B1ACB13F
:101E6000F1BB479AD7B9CAB9BDB941505109610907
:101E70007109A1FB222720F930E082179307D1F6E0
:101E8000452B462B472B41F0DF91CF911F910F91AE
:101E9000FF90EF90DF900895DF91CF911F910F9108
:101EA000FF90EF90DF90D0CECF938823D1F1809137
:101EB000030D8F5F8093030D853148F081E0909191
:101EC000040D9111DDC08093040D1092030DC0919B
:101ED000070DC11193C05091010D9091020DE09139
:101EE000080DE13009F4E4C008F4D7C0E230A1F4F1
:101EF000292F2F778091FD0C9091FE0C90FD20688A
:101F00008091FF0C9091000D90FF07C08091040D0F
:101F1000882319F0205801C020E0F0E0E350F34F8F
:101F200024875FB7F89486EC81BB469A81E085B937
:101F300080E488B91BB880E28EB987E881BB00C015
:101F400000C080E190E00090080D02C0880F991F4A
:101F50000A94E2F796EC91BB469A482F440F382F2B
:101F60003695282F221F2227221F942F9670292B67
:101F70002064942F907C8071982B842F880F80721E
:101F8000982B327081E085B928B99BB93EB987E8B2
:101F900081BB00C000C0E091080DF0E0E350F34FBA
:101FA000348586EC81BB469A432F440F832F869558
:101FB000242F26702064932F991F9927991F292B6E
:101FC000942F907C3071932B342F330F3072932BDE
:101FD0008270806231E035B928B99BB98EB987E843
:101FE00081BB5FBF8091080D90E0019663E070E0D7
:101FF0000E9494578093080DCF9108954091050D4C
:102000004F5F4093050DECE0FDE001900020E9F703
:10201000ED50FD402091060D332727FD3095C90175
:1020200001966E2F772767FD70950E949457682F51
:10203000F901E350F34F278530E02038310530F1C6
:102040005FEFE82FFF27E7FDF095E350F34F27857B
:1020500030E020383105F8F4F901E857FB4F908162
:10206000403108F43CCF8093060D1092050D6111AC
:1020700036CF1C160CF033CFC150C093070D2FCFB5
:1020800080E08093040D1092030D21CFF901E857F1
:10209000FB4F5081D6CF9FEFE3CF2091FD0C809175
:1020A000040D882309F439CF8091FF0C282735CF00
:1020B000252F2F778091FD0C9091FE0C91FD2068CB
:1020C0008091FF0C9091000D91FF27CF1FCF86ECE0
:1020D00081BB469A15B886E888B983E08BB91EB8EB
:1020E00087E881BB8FE99FE00197F1F700C000000E
:1020F00086EC81BB469A15B883E888B983E18BB931
:1021000082E08EB987E881BB9AE09A95F1F700C02A
:1021100086EC81BB469A90EE97B987E08AB99DB963
:1021200015B890E898B98BB91EB887E481BB82E0F6
:102130008A95F1F700C086B189B18CB186EC81BB7C
:10214000479A87EE87B987EF8AB982EE8DB99AE010
:102150009A95F1F700C00895392F3695369566ECBB
:1021600061BB469A532F550F452F46704068232F69
:1021700020712260752F707C272B550F5072252BF4
:1021800036953270306215B848B92BB93EB947E878
:1021900041BB969587959695879561BB469A382F52
:1021A000330F282F2695982F991F9927991F532F62
:1021B0005670952B906880718260532F507C852BD0
:1021C000330F3072832B227015B898B98BB92EB9A2
:1021D00041BB08952F923F924F925F926F927F92F0
:1021E0008F929F92AF92BF92CF92DF92EF92FF9227
:1021F0000F931F93CF93DF93CDB7DEB728970FB61A
:10220000F894DEBF0FBECDBF8B83CFB6F894282FD6
:10221000259525952595259580E290E002C0959518
:1022200087952A95E2F79B819F70982B86EC81BB5E
:10223000469A492F440F892F8695392F331F33270C
:10224000331F242F2670322B3064242F207C907172
:10225000292B942F990F9072292B8270806491E022
:1022600095B938B92BB98EB987E881BB25E02A9595
:10227000F1F700002B81332727FD30953A8329831E
:10228000F901E85FFA4FE080F12C80E190E08E19CF
:102290009F092FEF3FEF082E02C0369527950A942D
:1022A000E2F702C0220F331F8A95E2F73D832C83A9
:1022B00000E010E82FEF3FEFD12C76ECA72EE0EEF8
:1022C000BE2EF7E02F2E33243394A0E44A2EB0E242
:1022D0005B2E87E4682E97EE792E47EF842E52EE20
:1022E000952E0CC0200F311F16950795D3948D2D78
:1022F000992787FD9095E816F9062CF1C9012F83DF
:1023000038872ADF82E08A95F1F700C0A1BA469AA1
:10231000B7B82AB8BDB835B848B81BB85EB861BA06
:1023200092E09A95F1F700C086B189B19CB1A1BA4B
:10233000479A77B88AB89DB82F81388585FDD2CF66
:10234000201B310BD1CF86EC81BB469A81E085B949
:1023500087E488B980EF8BB982E48EB987E881BBC6
:10236000A5E0AA95F1F70000EC81FD812E233F2323
:10237000E981FA81EE0FFF1FE759FC4E318320837C
:10238000232F3327E981FA81EB5BFC4E848190E0B7
:10239000821B930B97FD40C0059724F1248381E0B5
:1023A00090E0A0E0B0E00B8004C0880F991FAA1F46
:1023B000BB1F0A94D2F74091451350914613609188
:1023C000471370914813842B952BA62BB72B809322
:1023D000451390934613A0934713B09348132B8152
:1023E0002093AA13CFBE28960FB6F894DEBF0FBE77
:1023F000CDBFDF91CF911F910F91FF90EF90DF90B4
:10240000CF90BF90AF909F908F907F906F905F9094
:102410004F903F902F900895919581959109BCCF51
:102420001F93CF93DF93D82FD86F86958695869587
:1024300028E030E001C0220F8A95EAF7C22FC0954C
:10244000CD231FB7F894CB0187DE86EC81BB469A7B
:102450009D2F990F967091648D2F86958270806A5A
:1024600021E025B998B920EF2BB98EB927E821BB17
:1024700025E02A95F1F7000026EC21BB469A2C2F87
:10248000220F3C2F36955C2F551F5527551F422F85
:102490004670542B5064422F407CC0714C2B220F4D
:1024A0002072422B3270306A21E025B958B94BB9FD
:1024B0003EB927E821BB2AE02A95F1F700C026ECB7
:1024C00021BB469A21E025B998B990EF9BB98EB906
:1024D00087E881BB8AE08A95F1F700C01FBFDF91D2
:1024E000CF911F9108950F937695282F2F774091C4
:1024F00063184F704069E091601DF091611D072FD6
:1025000063E070E080E69DE109950F9108950F93D7
:10251000262F4F772F778F708068E091601DF091A4
:10252000611D042F482F63E070E080E69DE109956E
:102530000F910895EF92FF920F931F93CF93DF9324
:10254000EC01162FF42EE22E8091851D843079F156
:10255000C230D10509F457C0C330D10579F1C1307B
:10256000D10509F442C0C430D105E0F5E0917C1DED
:10257000F0917D1D309739F00E2D2F2D412FBE018A
:1025800080E69DE10995E0917E1DF0917F1D3097D9
:1025900039F00E2D2F2D412FBE0180E69DE10995CA
:1025A000DF91CF911F910F91FF90EF900895E091EF
:1025B0007A1DF0917B1D3097F9F6D8CF862F807F5A
:1025C000803A09F48EC008F444C0803E09F484C007
:1025D000803F09F459C0803B49F6E091621DF091BB
:1025E000631D40C0C0E0D0E0C1CF683F50F1E09132
:1025F000761DF091771D309709F4B8CF612F80E6F2
:102600009DE10995C0CF862F807F803D09F45FC092
:10261000803F09F44AC0803C09F0A8CFE0916E1DCC
:10262000F0916F1D309709F4A1CF812F8D7F813FED
:1026300009F447C04F2D612F6F7080E69DE1099529
:10264000A2CF663F09F092CFE091781DF091791DFD
:10265000D2CF8038A1F0803909F088CFE091641D95
:10266000F091651D309709F481CF123FB9F02E2DFE
:102670004F2D612F6F7080E69DE1099584CFE09129
:10268000661DF091671DEECF623F09F06FCFE091BC
:102690006C1DF0916D1D309709F468CF2E2D4F2DD4
:1026A00062EF80E69DE109956ECF633FF9F0613FEF
:1026B00009F05CCFE091741DF091751D309709F41D
:1026C00055CF4F2D612F80E69DE109955CCFE091BC
:1026D000701DF091711DA6CFE0916A1DF0916B1DE8
:1026E000C1CFE091681DF091691DBCCFE091721DD2
:1026F000F091731D309729F739CF21E02093070D12
:102700000097A9F01092060DBC018DE09DE00E949B
:10271000B45BECE0FDE001900020E9F7ED50FD40F6
:10272000E45FF24F80E290E09183808308958FEF21
:102730008093060D08958F929F92AF92BF92CF9291
:10274000DF92EF92FF920F931F934A015B016801A2
:102750007901BC0180E090E00E94E4589058A50106
:1027600094010E941F580E948C58A70196010E9454
:10277000685A0E94B858CB011F910F91FF90EF90BB
:10278000DF90CF90BF90AF909F908F9008950F9360
:102790001F9391E020E0E0E0FF27E7FDF095E25C89
:1027A000F24F3081232BE92F9F5F9131A9F731E060
:1027B000211101C030E0E6E5FEE090E02081922B9F
:1027C0003C962EE0EE39F207C9F791110BC04FEF9E
:1027D0005FEFBA014093A7165093A8166093A9160D
:1027E0007093AA16332321F0909193189923D1F076
:1027F00030939318882399F08091FE169091FF16DC
:1028000000E010E42CE135E440E050E86BE376E4CE
:102810008095909590DF9093AC168093AB161F91A6
:102820000F9108954091780C5091790C60917A0C39
:1028300070917B0C4093A7165093A8166093A9162D
:102840007093AA16D5CF0F931F93CF93DF93EC010C
:102850008A899B8900E01FEF2FE737E440E050E2D0
:102860006BE476E48095909566DFAC0160E070E003
:10287000088C04C0440F551F661F771F0A94D2F7B7
:10288000488759876A877B87DF91CF911F910F9186
:102890000895CF93DF93EC01888D8617A9F0688F98
:1028A000CE01D1DFA98DBB27A1950CF4B095AA0F5D
:1028B000BB1F1196288539854A855B850E946A5C15
:1028C0006C877D878E879F87DF91CF910895CF9307
:1028D000DF93EC01598B488B8A899B898617970770
:1028E000B1F07B8B6A8BCE01AEDFA98DBB27A195A2
:1028F0000CF4B095AA0FBB1F1196288539854A851F
:102900005B850E946A5C6C877D878E879F87DF91DD
:10291000CF9108959C01AA27269FB12D379FC00112
:10292000729FB00D811D9A1F369FB00D811D9A1F99
:1029300011240895EF92FF920F931F93CF93DF938B
:10294000F82EEFB6F89489E7EFEAF6E1DF011D9281
:102950008A95E9F780E090E89093D1168093D0169D
:102960009093D7168093D6162FEF3FEF3093DB1658
:102970002093DA169093DF168093DE163093EB16D1
:102980002093EA163093CF162093CE169093FB1621
:102990008093FA16909301178093001785E0809337
:1029A000C21681E08093C3168093BC168093BE1636
:1029B0008093C41682E08093C51646E050E06FEF26
:1029C00070E08AE097E10E94A25B00E117E1C0E0BD
:1029D000D0E0BE01882777FD8095982F0E94E658A9
:1029E0002BEA3AEA4AEA55E40E94685A0E94B8582B
:1029F000F801619371938F012196CC30D10549F78D
:102A0000FF2019F081E08093AF16EFBEDF91CF91E8
:102A10001F910F91FF90EF900895DF92EF92FF9238
:102A20000F931F93CF93DF93EC01862F90E00097D5
:102A300081F122E430E1A0E0B0E0AD014C0F5D1F78
:102A400060E070E0403E510561057105E8F45F5FAC
:102A50006F4F7F4F762F652F542F442700E010E0F3
:102A6000E12CF12C6BBFFA01D790F901EE0DFF1D9F
:102A7000D0820F5F1F4F78014F5F5F4F6F4F7F4FC7
:102A80000115E1E01E0771F711963395A817B907F4
:102A9000A0F2109244138091421090914310A091A3
:102AA0004410B091451026E430E130934313209355
:102AB0004213853A9641A146B10599F420914610FA
:102AC00087E490E19093431380934213209344133F
:102AD00081E0DF91CF911F910F91FF90EF90DF90F8
:102AE000089580E093E0E2E4F0E1DF019C011D92B3
:102AF00021503040E1F780E0DF91CF911F910F919D
:102B0000FF90EF90DF900895EF92FF920F931F9345
:102B1000CF93DF93F82E8B01EFB6F89461E07DDF61
:102B2000E2E4F1E140E051E004C021153105E1F0BB
:102B3000A9019A012150310992919923B1F3EA0137
:102B40002196F092941862E470E185E998E10E9480
:102B5000885BF801D183C083EFBEDF91CF911F91D5
:102B60000F91FF90EF900895C1E0D0E040E050E079
:102B7000E8CF1F93CF93DF931FB7F89461E04DDF49
:102B8000882309F4AAC080E0D5DE10920A178FEFDF
:102B900080930B1780930C1780930D1780930E175B
:102BA00080930F1740914413442309F490C0E0919F
:102BB0004213F0914313ACECB6E1819191918D9366
:102BC0009D9386E1AE3FB807C1F7F0934313E093BE
:102BD0004213AFEAB6E18191F0934313E0934213BD
:102BE0008D9386E1A63CB807B1F78091BF1680931C
:102BF000C816423008F46BC0EF01AEEFB6E1299180
:102C000039912D933D9387E1A830B807C1F7D09350
:102C10004313C0934213FE012191F0934313E093B9
:102C200042132093C6162981DE011296B0934313F6
:102C3000A09342132093C716EAE0F7E12D91B093D9
:102C40004313A0934213219387E1E031F807B1F7D2
:102C5000FE0138962091691830916A183093071751
:102C600020930617473098F1A0E1B7E1CE01809696
:102C7000219131912D933D93E817F907C9F7F0930E
:102C80004313E0934213473011F1AEEFB6E1819167
:102C900091918D939D9387E1AA30B807C1F7F09386
:102CA0004313E09342134B3090F0A9ECB6E18191CD
:102CB000F0934313E09342138D9386E1AC3CB80745
:102CC000B1F71FBF81E0DF91CF911F91089581E09F
:102CD0001FBFDF91CF911F91089580E01FBFF9CFF3
:102CE000E2E4F0E180E093E0DF019C011D922150DD
:102CF0003040E1F72BE02093441385EA96E1A1E60A
:102D0000B0E080839183A283B383248387E490E13E
:102D100090934313809342130895833049F089318F
:102D200039F08F3129F08F50823010F080E0089513
:102D300081E00895BF92CF92DF92EF92FF920F93BE
:102D40001F93CF93DF93109241100DE317E1B12C45
:102D50006B2D772767FD7095872F972F0E94E65878
:102D60006B017C012DEB3EE140EC55E40E94685A7A
:102D700020E030E44CE955E40E94B4570E94B85872
:102D8000EB0121E33CE043E455E4C701B6010E94B6
:102D9000685A20E030E44CE156E40E94B4570E94A7
:102DA000B858F80186E0C193D193D387C287778B57
:102DB000668B8150C1F7B3940C5D1F4F88E0B81249
:102DC000C7CFDF91CF911F910F91FF90EF90DF90D0
:102DD000CF90BF900895DF92EF92FF920F931F93D1
:102DE000CF93DF93E82FD62E6BEA869F612D1124B7
:102DF000669566956695F1E0F60F50E0683008F04C
:102E000070C0262F30E0220F331FE901CC0FDD1FE9
:102E1000CC0FDD1FCC0FDD1FC20FD31FC40FD51F7A
:102E2000CC0FDD1FC35CD84E0990D881C02DF8307F
:102E300008F47CC0DA01AA0FBB1FA75CB74E0D9146
:102E40001C91DA01AA0FBB1FAB5EB74E8D919C910E
:102E50009801281B390BAF2FB0E017970E94AD5790
:102E6000600F711F811D911D6115710521E08207A1
:102E7000910508F071C09BEAE99F912D1124969568
:102E800096959695892F880F890F880F880FE81BD4
:102E9000F0E0EE0FFF1FE05FF84EE080F1808B0165
:102EA0000C1B1D0B8D2D90E0A0E0B0E06627782F65
:102EB000892F9A2F2CE030E040E050E00E94705CB7
:102EC0002E0D3F1D411D511DD8010E94605C8C0FCD
:102ED0009D1FDF91CF911F910F91FF90EF90DF9099
:102EE0000895EA01CC0FDD1FC75CD74E0990D88149
:102EF000C02DDA01AA0FBB1FAB5EB74E8D919C911E
:102F00009E01281B390BA62FB0E017970E94AD57E2
:102F10006C0F7D1F811D911D6115710521E08207D8
:102F20009105F8F4EB01F83008F084CF8F2F90E092
:102F3000880F991FDC01AA0FBB1FAA0FBB1FAA0F86
:102F4000BB1FA80FB91FA40FB51FAA0FBB1FA35CFF
:102F5000B84E6D917C918FCF6FEF7FEF80E090E066
:102F60008ACF6FEF7FEF80E090E0EB01DCCFCF9274
:102F7000DF92EF92FF920F931F93CF93DF93ECE7D3
:102F8000F6E11192119286E1E03AF807D1F710923A
:102F9000A1161092A0161092A3161092A21680915C
:102FA000C316833009F493C0C8F5813009F46FC0AB
:102FB000823059F52091C216A0917A16B0917B16F5
:102FC00030E00E94AD579B01AC01A5E5B5E10E9440
:102FD000605CBB2797FDB095AB2F909395168093BF
:102FE00094169093971680939616909399168093C3
:102FF000981690939B1680939A1690939D168093A3
:103000009C1690939F1680939E16DF91CF911F91EF
:103010000F91FF90EF90DF90CF900895843019F1D9
:10302000853099F7C090C216CC0CE0907A16F090DB
:103030007B16C8E8D6E126E0D22E4D2D60E08C2D1F
:10304000CADE8C014D2D60E080E0C5DE9801281BB2
:10305000390BD7010E94AD5789939993D3948CE093
:10306000D812EBCFD2CF2091C216A0917A16B09190
:103070007B1630E00E94AD579B01AC01A5E5B5E1A0
:103080000E94605C9093A3168093A216BECFC0905E
:10309000C216CC0CE0907A16F0907B16CCE7D6E105
:1030A000D12C4D2D60E08C2D96DE8C014D2D60E0F5
:1030B00080E091DE9801281B390BD7010E94AD57A3
:1030C00089939993D3948CE0D812EBCF9ECF209123
:1030D000C216A0917A16B0917B1630E00E94AD57CF
:1030E0009B01AC01A5E5B5E10E94605C9093A1163F
:1030F0008093A0168ACF8091A00E823039F081E0B3
:103100009091280F923019F080E0089581E00895A1
:103110000F931F93CF93DF932BE1FC0111922A951C
:10312000E9F70CE51AE160E070E080E89FEBC0E0B1
:10313000D0E01BC0BE01882777FD8095982F0E94A4
:10314000E65820E030E04FE753E40E941F5820E0AB
:1031500030E040E85FE30E94B4572BED3FE049E4E4
:1031600050E40E94685A0E941C5820E030E040E879
:103170005FE30E94B45720E030E040E05FE30E944C
:10318000685A20E03FEF4FE757E40E94685A0E94D8
:10319000B858F801619371938F012196C115F1E040
:1031A000DF0741F6DF91CF911F910F910895CF92E4
:1031B000DF92EF92FF921F93CF93DF93EC01162FD4
:1031C0006A8F488159816A817B81452B462B472B29
:1031D000B1F00E94055C688379838A839B83809128
:1031E0009218181711F01830A9F010939218DF9167
:1031F000CF911F91FF90EF90DF90CF900895609155
:10320000780C7091790C80917A0C90917B0C0E94D3
:10321000085CDFCF6AE3E62E6AE1F62ECC24C39485
:10322000D12CC0E0D0E010C0F70180819181938360
:103230008283F0E1CF16D104C1F221968FEFC81A34
:10324000D80AE2E0EE0EF11C0E94055C209711F115
:103250009B012770332723303105B0F09B01207785
:1032600033272035310500F3872F9927BE010E94AF
:103270008057880F991F845C954EFC018081918155
:10328000F70193838283D5CF0E94055CF701738396
:103290006283CFCF70933D1A60933C1ACECF21E06A
:1032A00030E002C0220F331F8A95E2F7E091FD0C57
:1032B000F091FE0CC90180959095DC01AE23BF23EF
:1032C000B093FE0CA093FD0CA091FF0CB091000DEB
:1032D0008A239B239093000D8093FF0C662371F04B
:1032E000E22BF32BF093FE0CE093FD0C442331F022
:1032F0002A2B3B2B3093000D2093FF0C089524E6DE
:1033000030E040E050E00E94445C2AE030E040E0E1
:1033100050E00E94445C205DA22FB0E0A857BB4F54
:103320008C918093010D605DE62FF0E0E857FB4F34
:1033300080818093020D089590E08038910588F493
:10334000FC01E857FB4F80818093010D70E06038ED
:10335000710570F4FB01E857FB4F80818093020DEB
:1033600008958FEF8093010D70E06038710590F340
:103370008FEF8093020D08952F923F924F925F92AC
:103380006F927F928F929F92AF92BF92CF92DF9275
:10339000EF92FF920F931F93CF93DF93CDB7DEB7DA
:1033A000C256D1090FB6F894DEBF0FBECDBF882339
:1033B00009F43AC1812C782C770C770C770C9E019C
:1033C0002F5F3F4F6901CE01089667969FAF8EAF82
:1033D00067974DE3242E40E2342E412C582C4FB7F2
:1033E000F89486EC81BB469A952D990F292F26706B
:1033F0002064892F880F8072907C892B952D96955B
:10340000927031E035B928B98BB99EB987E881BB94
:103410009DE09A95F1F7000086EC81BB469A80EE1C
:1034200087B997E09AB98DB981E085B980E488B908
:103430001BB88EB987E481BBA2E0AA95F1F700C062
:1034400086B139B12CB196EC91BB479AA82EA694BF
:10345000BA2DB370AB2EE0E88E9FC0011124A82ACC
:10346000832F8071A82A832F869586958870A82A35
:10347000832F86958076A82A220F2470A22A87EEB1
:1034800087B987EF8AB982EE8DB94FBFB72C912CDF
:1034900038EA632E670C30EC370D68963FAF6897BB
:1034A00009C082508083A6949394B39438E0931615
:1034B00009F483C00B2D10E0F801E358F34F80812D
:1034C000982F9E7F71F73A2D3170381761F3832F53
:1034D0008A6080835FE35B1580F1E32EFF24E7FCC5
:1034E000F0948B2DA3963FAFA3970E94982EA3969E
:1034F0003FADA397E114F10409F47FC080EF870D7D
:10350000890D823008F412C2BAE0BB1609F4F1C189
:10351000EBE080913910BE1609F42FC2882309F41C
:103520006CC05DE0B512B5C661E0909138109111A4
:1035300060E00E948A3591E071C0832F992787FD52
:10354000909520913717211105C02091381722231B
:1035500009F46DC0892B09F4A6CF87E0E8E2F5E015
:10356000D60101900D928A95E1F789E06796AEAD9C
:10357000BFAD67971D928A95E9F7862D890D8093D7
:10358000AE168093B00F809336104AE0BE01695F9B
:103590007F4F992787FD90950E94115CC601ADD899
:1035A00080913717882309F47ECF10923817A6949C
:1035B0009394B39438E093127DCF5394730E5FE0ED
:1035C000551508F00CCFCE59DF4F0FB6F894DEBF7B
:1035D0000FBECDBFDF91CF911F910F91FF90EF9064
:1035E000DF90CF90BF90AF909F908F907F906F9023
:1035F0005F904F903F902F90089587E2B81609F49E
:103600004EC0E114F10409F407C29EE0B91609F4B2
:10361000F6C0BFE0BB1609F4DEC090E0EF2809F069
:1036200055C00E94382E3FCF58E0852EC4CE892B3E
:1036300051F08091A00E813009F486C48091280F4A
:10364000813009F4F3C2409139104111E5C018ED01
:10365000170D190D8091A00E833009F45BC1809184
:10366000280F833009F456C18091AE1621E040E066
:1036700050E8632F810FA3963FAFA3970E94D04AD3
:103680008091AE16810FA3963FADA3973111B7C1BC
:1036900040E4682F809163180E94871204CFE114E0
:1036A000F10409F496C0EED686E0E6E9FEE0AAE071
:1036B000B7E101900D928A95E1F78091611881112F
:1036C000ACCF8BED90E00E94F93DA7CF80918C0CA0
:1036D00080FF3DC0A9E0AB1508F0D8C0B2E1BB1631
:1036E00009F453C22CE0B21609F4BAC03DE0B31697
:1036F00009F477C190912817953009F470C4992383
:1037000009F48EC1A9E0AB1508F48BCF923009F40F
:1037100088C408F482C2953008F083CF80912917BD
:10372000EB2DBAE08B9FE00D11248E2FE09329172B
:10373000943009F46EC5992787FD90951ADA8111A6
:1037400012C58FEF809329170E94FB2E6ACFA2E14A
:10375000BA12C8CF0E94BF29809185139091861319
:103760001FB7F8940E94AC1086EC81BB469A81E0AA
:1037700085B987E488B980EF8BB980EA8EB987E88C
:1037800081BBB5E0BA95F1F7000086EC81BB469AA3
:1037900081E085B987E488B980E78BB980EA8EB982
:1037A00087E881BBEAE0EA95F1F700C086EC81BBCF
:1037B000469A81E085B987E488B980EF8BB980EAC1
:1037C0008EB987E881BBFAE0FA95F1F700C01FBF18
:1037D00028CF3BD669CF8091381781113EC08091A8
:1037E0003917882309F414C11092391781E08093A6
:1037F0003817309337178FEF80933A170ECF809199
:103800006118882309F476CF80912817882309F45A
:10381000FBC0109228176ECF68962FAD6897290DC0
:103820003111BFC080913810882309F4D5C14130CF
:1038300009F478C4E3EBFFE080E090E005C0019676
:103840008038910509F42FCE31912313F8CFFC0174
:10385000ED54F04F2068208326CE10923817C9CF40
:1038600080916118811106C08BED90E00E94F93DB6
:103870008091611891E0811190E0909361180E940D
:1038800010290E94FB2E0E94382ECBCE10923917A1
:103890001092381782E2E8E3F5E0DE01D39601905A
:1038A0000D928A95E1F780913A178B1509F47FC143
:1038B000E4E0BE1609F455C395E0B91609F4D8C181
:1038C000B0923A178B2D90E0A0E0B0E06C968CAFF0
:1038D0009DAFAEAFBFAF6C976A96AEADBFAD6A9706
:1038E000A331B10508F09DCEFD01EA5AFF4F0C94BB
:1038F000A75781E090913910913009F423C360916A
:103900003810A3963FAFA3970E948A35A3963FAD88
:10391000A39777CE632F812FA3963FAFA397F8D5B8
:103920000E943239A3963FADA3979ECE81E091E1EC
:10393000B91280E0A8E88A9FF0011124E056F14F07
:103940009081913081F008F461C3923009F486C10E
:10395000933009F0D9CD91E020916118211101C077
:1039600090E09093281762E0A3963FAFA3970E9440
:103970008B3CA3963FADA397C7CD823009F408C313
:1039800008F460C1833009F0DAC26091381082E037
:10399000A3963FAFA3970E948A35A3963FADA39706
:1039A00030CEE3EBFFE005C0B0E1E333FB0709F401
:1039B0004AC381918F3FC1F3413009F47BC1E3EBEE
:1039C000FFE080E090E005C001968038910509F4A1
:1039D0006ACD31913F3FC1F7FC01ED54F04F208398
:1039E00062CD911187CE80912817823009F41FC3D0
:1039F000843009F41CC382E08093281712CE60E063
:103A000070E80E9473124FCD81E08093281772CE28
:103A10008FE380933917EDCEAFE0BA12FECDE9CE39
:103A20006091361789E08B1508F4FBCD6B1509F40E
:103A300069C3862F992787FD90952B2D332727FD66
:103A40003095A901465F5F4F8417950709F4B2C30B
:103A50002C5E3F4F8217930709F4BEC3B09236170E
:103A60008FEF9FEFDC018093321790933317A09371
:103A70003417B09335170B2D9CE1090280011124F6
:103A8000005E1E4F1092451310924613109247137A
:103A9000109248138FEF8093AA1380932B178FEF08
:103AA0009FEFDC0180932C1790932D17A0932E1776
:103AB000B0932F17D80112966D917C911397C60180
:103AC0000E94B45BF60101900020E9F73197CF0125
:103AD0008C199D09208231824282F8012081213097
:103AE00009F4FBC208F4DAC2223009F042C08DE1C9
:103AF000EFEAF6E1A4E9B8E101900D928A95E1F7C9
:103B0000A2961CAE1DAE1EAE1FAEA297EA2C699601
:103B10009FAE69976E96DFAECEAE6E97D62C6B2CAD
:103B2000812C912C5401B501A401F80181810E94DE
:103B300021484DE150E06FEA76E184E998E10E9486
:103B40007B5B892B09F47FC35FEF851A950AA50A71
:103B5000B50A84E088169104A104B10421F7AE2CC3
:103B600069969FAC6997B62C6D2C6E96CEACDFAC87
:103B70006E97C6010E947D1380916118811151CD0D
:103B80008BED90E00E94F93D4CCD109239171092C8
:103B9000381782E2E8E3F5E0DE01D39601900D925A
:103BA0008A95E1F780913A17823109F089CE8B2D01
:103BB00090E0A0E0B0E06C968CAF9DAFAEAFBFAF31
:103BC0006C970A9708F073C06A96EEADFFAD6A97DE
:103BD000E759FF4F0C94A757413009F451C2E3EB6A
:103BE000FFE080E090E004C001968038910541F04C
:103BF00031912313F9CFFC01ED54F04F2FEF2083C7
:103C0000E3EBFFE081918F3F09F04DCC20E1E333FE
:103C1000F207C1F70E946D3546CC913009F001CD15
:103C2000B092291783E080932817FBCC62E0A3961B
:103C30003FAFA3970E948B3C0E943239A3963FADC1
:103C4000A39701CD6091381083E0A3963FAFA3976F
:103C50000E948A35A3963FADA397D3CC60E0A3968C
:103C60003FAFA3970E948B3CA3963FADA3974CCC4C
:103C7000843009F025CE85E090E0A0E0B0E06C96BD
:103C80008CAF9DAFAEAFBFAF6C9781E090E000907E
:103C90003B1702C0880F991F0A94E2F790916418AD
:103CA0009827909364180E9410290E94382EB09291
:103CB0003A1712CE822F90E0FC01ED54F04F208392
:103CC000EFE7F0E0E81BF90BED54F04F2083EBCB6E
:103CD00081E090913C17911180E080933C17A1CC3A
:103CE00088E0E0E0FCE0D60101900D928A95E1F7D2
:103CF00080916618882309F49DC28FE69EE6A0E0B5
:103D000088879987AA87D6010D900020E9F7CD0111
:103D100001978C199D09D601A80FB91F2CE0E8E086
:103D2000FCE001900D922A95E1F720916718F601C9
:103D3000E80FF91F222309F474C28FE69EE6A0E083
:103D400083879487A587C6010E947D136ACC8091E2
:103D50006518813009F498C2823009F490C281114B
:103D600060CC83EE9BE00E947D135BCC8FEC9BE0EC
:103D70000E947D1356CC20913B178091641890E0EF
:103D8000022E02C0959587950A94E2F780FF29C21A
:103D900087E0E0ECFBE0D60101900D928A95E1F717
:103DA0002F5C2B83C6010E947D133BCC88EA9BE0ED
:103DB0000E947D1336CC80916218F601B2E08B022E
:103DC000E00DF11D112464A975A9C6010E94B45B20
:103DD000D6010D900020E9F7119786E0ECE9FBE0B1
:103DE00001900D928A95E1F7C6010E947D1319CCCE
:103DF00084E19CE00E947D1314CC80916318F6014D
:103E000022E08202E00DF11D112464A975A9C6010A
:103E10000E94B45BD6010D900020E9F7119786E06F
:103E2000E2EAFBE001900D928A95E1F7C6010E945B
:103E30007D13F7CB81E090916618911101C080E06D
:103E4000909167189111D6C190E0890F90E001968A
:103E500083709927982F9170909366188695809318
:103E600067180E9410290E94382E21CF8091651872
:103E7000992787FD9095019663E070E00E94945722
:103E8000809365180E9410290E94382E10CF1A8244
:103E9000198200E010E006C00F5F1F4F04361105C5
:103EA00009F47FC1C8010E94B9158823A9F3B6019E
:103EB000C8010E94841589819A810E94DA3AECCF68
:103EC0008091891390918A1390935E1880935D1866
:103ED0000E9410290E9487478BE79BE00E947D1378
:103EE000B0923A179ECB80916318992787FD9095E1
:103EF00001968F70907897FDBDC1809363180E94E2
:103F00001029D5CE81E00E949A1481E080932A176F
:103F10008FE19CE00E947D130E94382EE1CF8091BA
:103F20006218992787FD9095029661E170E00E94E2
:103F300094578150809362180E941029B8CE811145
:103F40006CCB5FCB80E0DBCC62E080E0A3963FAF40
:103F5000A3970E948B3C0E943239A3963FADA39752
:103F60006DCB84E090E0A0E0B0E06C968CAF9DAFAC
:103F7000AEAFBFAF6C9780913B17992787FD9095A7
:103F8000019666E070E00E94945780933B178FCEB5
:103F900080903810A3963FAFA3970E946D358FEFA6
:103FA0009FEF90933410809333108093351040E846
:103FB00050E06FEF70E083EB9FE00E94A25B0E94F5
:103FC0005634A3963FADA397811004C0809138105A
:103FD0008111B9C0109239108092381012CB8091A3
:103FE000A00E833029F08091280F833009F019CB7F
:103FF00052E05B1508F415CBF801E65AFA4F8081C0
:104000008F3F09F40ECB61E083D20BCB9091281740
:10401000923009F4F1C090913717992379F161E05A
:104020001ECEB092291784E080932817FACA81E047
:1040300090916118911101C080E0809328178FEF53
:1040400080932917EECA309165188FEF9FEF9093F8
:104050003410809333103111AFCC8091A00E823098
:1040600009F4AACC8091280F823009F4A5CC8FEFF7
:104070009FE79093F3138093F2139ECC62E0EFCD11
:1040800030E0F901ED54F04F8FEF8083EFE7F0E07F
:10409000E21BF30BED54F04F8083B2CDE2E0F0E091
:1040A000EC0FFD1FE80FF91F1082D8011196EC915B
:1040B000EE0FFF0BE155F94E858D968D90933117DC
:1040C00080933017A0E0B0E080932C1790932D17C9
:1040D000A0932E17B0932F174CCDE181FF27E7FD5A
:1040E000F095E155F94EE081F0E03296EE0FFF1FBA
:1040F000E00FF11F6081718102968C0D9D1D0E9461
:10410000B45B37CD0AE00B0D009336178FEF9FEFAE
:10411000DC018093321790933317A0933417B09338
:104120003517AACC30E0F901ED54F04F808180685A
:104130008083EFE7F0E0E21BF30BED54F04F80815A
:1041400080688083B0C983E390E1E3EBFFE04FEF49
:1041500005C0319620E1E333F20789F0208127FF83
:10416000F8CF4083F6CF80912917992787FD909546
:104170009093601880935F180E941029E2CAE3EBC5
:10418000FFE021912F3F09F025CF8E179F07C9F738
:10419000A3963FAFA3970E946D35A3963FADA3971B
:1041A00019CF8DE89BE00E947D130E94FB2E0E9498
:1041B000382E96CE0AE0060F009336178FEF9FEF4A
:1041C000DC018093321790933317A0933417B09388
:1041D0003517061351CC25CA0CEE060F009336177F
:1041E000EDCF88E0E7ECFBE0D60101900D928A95D7
:1041F000E1F7D6CD92E029CE63E0A3963FAFA39737
:104200000E948B3C85E080932817A3963FADA3972F
:104210007BC9992787FD90950E94F93D80912917C8
:104220008ACA8FE696E6A6E6B0E083879487A587DC
:10423000B68789CD8FE696E6A6E6B0E088879987AF
:10424000AA87BB8760CDAE2C69969FAC6997B62CC8
:104250006D2C6E96CEACDFAC6E97F801282D32E057
:104260002302E00DF11D112464817581C6010E94B5
:10427000A95B7FCC0197806F9F6F01963ECE86EF42
:104280009BE00E947D13CDC98CEE9BE00E947D13C4
:10429000C8C997E2B912B9C906CA809165188130B8
:1042A00009F008956A3FB1F06C3F41F0683FC9F7EB
:1042B0008091AD168F5F8093AD1608958091A00E0A
:1042C000823089F18091280F823059F788E29FE08F
:1042D0000C94F7348091A00E823079F11092230F64
:1042E0001092220F8FEF9FEF9093250F8093240F52
:1042F0008091280F8230E1F01092AB0F1092AA0F3C
:104300008FEF9FEF9093AD0F8093AC0F909334108D
:10431000809333108FEF9FE79093F3138093F21302
:104320001092AD16089580EA9EE00E94F734CACF3D
:1043300088E29FE00E94F734DFCF80EA9EE00E948F
:10434000F734CCCF80913A1090E060913C1070E04F
:104350000E949457E0913D10F0913E10E80FF91F34
:1043600020813FB7F894EAE3F0E1808190E0019684
:1043700060913C1070E00E94945780833FBF822F71
:104380000C945B0EE8E5FEE09FEFDF0112971C92B4
:10439000108211979C9311979C9316971D921D92D2
:1043A0001D921C9213973C962EE0E03AF20769F7B3
:1043B000811101C0089580E1EEE3FDE0DF011D926F
:1043C0008A95E9F708951F93CF93DF93182FD92F7C
:1043D000C62F80919E0E8617F1F080E0D3DFC09348
:1043E0009E0E46E050E06FEF70E086E99EE00E948E
:1043F000A25BE12FFD2FA6E9BEE080E091919F3FF7
:10440000B9F09D938F5F8630C9F71092960EDF91B9
:10441000CF911F91089546E050E066E97EE0812F3C
:104420000E947B5B892BD9F6DF91CF911F91089574
:104430008111EBCFE6E9FEE086E0DF011D928A956F
:10444000E9F7DF91CF911F910895CF93DF9300D0CB
:1044500000D000D0CDB7DEB786E0EDE5F5E0DE01B7
:10446000119601900D928A95E1F760E0CE010196D8
:10447000AADF26960FB6F894DEBF0FBECDBFDF9140
:10448000CF910895CF93DF9300D000D000D0CDB767
:10449000DEB746E050E06FEF70E0CE0101960E947B
:1044A000A25B80E090E003C08F5F803821F1E82FAD
:1044B000E695E695E695F0E0E25CF24F2081222356
:1044C00099F3E82FE770F0E0EF56FA4F308132238E
:1044D00059F3E1E0F0E0EC0FFD1FE90FF11D97FD4E
:1044E000FA958083191624F42981382F321B3083E2
:1044F0009F5F9630CCF261E0CE01019664DF269694
:104500000FB6F894DEBF0FBECDBFDF91CF910895F7
:104510008F929F92BF92CF92DF92EF92FF920F9372
:104520001F93CF93DF9300D0CDB7DEB7F82EC62E02
:1045300080EA882E8EE0982E01E21FE026E23FE01E
:1045400098EEE92EEF0C4FE3B42EDD24DA94F4015B
:1045500080818330D1F0F8E88F0E911C08571F4FEF
:1045600028573F4F80EB88168FE0980681F70F9011
:104570000F90DF91CF911F910F91FF90EF90DF90FF
:10458000CF90BF909F908F900895FCEFFF1609F495
:1045900055C0FDEFFF1609F464C0FEEFFF1609F4E5
:1045A0007DC08091B20FCC2069F191E0980F90937B
:1045B000B20FF401EF57FF4F7081472F50E09091F9
:1045C000B10FFA01E90FF11DE038F10524F6882357
:1045D00009F48DC08FEF870F03C0815087FD0DC098
:1045E000F401E80FF11D87FDFA959181692F6F7332
:1045F000E61609F4B0CF97FDF0CF7F5FF801708326
:1046000080E87DC0811169C0F801808190E0019649
:104610004091B10F50E06EE370E0880D991D298341
:104620003A830E94A25BF80180819091B10F890FBB
:1046300080831092B10F29813A818DCFF8011082C9
:10464000F90110821092B10F40E850E06FEF70E076
:10465000C401019629833A830E94A25B29813A8191
:104660007ACFF9018081882309F475CF8150808346
:104670008091B10F811137C0F401EF57FF4F808156
:104680000AC08150F8018083F401E80FF11D918187
:10469000D18297FF60CF8111F4CF5DCFF401EF5746
:1046A000FF4F6081862F90E04091B10FFC01E40F35
:1046B000F11DE038F1050CF04ECFF90140814F5F5C
:1046C00040834091B20F411120C0F401E80FF91F5F
:1046D000B1826F5FF80160833ECF81508093B20F4B
:1046E000811139CF91CF81508093B10F34CFF9012F
:1046F00080818F5F80837F5FF801708380E0F401A9
:10470000E40FF51F8E29818326CF8091B10F8F5F33
:104710008093B10F20CFCF93DF93FC01D62FCFB77B
:10472000F894218130E0C90101964281642F70E044
:104730000E949457408150E08417950791F0A3811F
:10474000B481A20FB31FDC93818190E00196628156
:1047500070E00E9494578183CFBF81E0DF91CF91B9
:104760000895CFBF80E0DF91CF910895FC013FB75E
:10477000F89421819081291728F48281820F891B66
:104780003FBF0895822F891B3FBF08956F928F927C
:104790009F92AF92BF92CF92DF92EF92FF920F93D0
:1047A0001F93CF93DF93E091801DF091811D30978F
:1047B00019F080E69DE1099588E49EE1D7DF082F96
:1047C00010E00115110509F494C0C0E0D0E090910B
:1047D000481E20914A1EEE24E394F12C83E0B82E6B
:1047E00034E0A32E42E0C42EDD24D394892F90E040
:1047F000622F70E00E949457E0914B1EF0914C1E86
:10480000E80FF91FF081F83F08F050C0F7FF7FC0B4
:104810008091851D843031F0F093821DF092871DC8
:10482000E092861D8F2F807F803B09F4B5C008F48D
:10483000ACC0803D09F4CAC008F4C5C0803E09F48C
:10484000ABC0803F29F4EFE0EF0FEF3008F4C1C0B8
:10485000F03F09F4D2C0F73F09F0C8C04091861D6F
:104860005091871D9A01ABEABAEA0E94925C969534
:1048700087959C01220F331F280F391FDA01A21BD5
:10488000B30BA05AB24E9296FC93CA010196909334
:10489000871D8093861D2091841D4091831D60910A
:1048A000821D0E949A121092851D0DC09090851D48
:1048B000D092851D20E040E06F2F81E090E00E94C3
:1048C0009A129092851D3FB7F8949091481E892FB7
:1048D00090E0019620914A1E622F70E00E9494574A
:1048E000982F8093481E3FBF2196C017D10708F428
:1048F0007DCFDF91CF911F910F91FF90EF90DF90CF
:10490000CF90BF90AF909F908F906F9008956090E0
:10491000851D6620C1F24091861D5091871D9A0128
:10492000ABEABAEA0E94925C4C0196948794C40167
:10493000880F991F880D991D4A01881A990AD40178
:10494000A05AB24E9296FC93CA0101969093871D8D
:104950008093861D21E08216910409F122E08216DF
:10496000910409F0B0CF2091841D4091831D609186
:10497000821D0E949A128091851D843009F4A3CF74
:10498000F092871DE092861D9ECF803929F0803AF3
:1049900019F0803809F05CCFB092851D94CF22E0E9
:1049A000621291CF20E04091831D6091821D0E9490
:1049B0009A128091851D843009F485CF9092871DCD
:1049C0008092861D80CF803C09F042CFC092851D29
:1049D0007ACFAE2FB0E0AD59BA4F8C918130B1F0A3
:1049E00008F436CF823091F38330B1F21092851DF6
:1049F0001092871D1092861D66CFA092851DF093A0
:104A0000821DF092871DE092861D5DCF8093851DEB
:104A100020E040E06F2F81E090E00E949A12109217
:104A2000851D51CFCF93C82F6C2F8AE390E173DEA1
:104A300081110CC08AE390E199DE8823A9F382DC1E
:104A40006C2F8AE390E167DE8823A1F3CF9108956C
:104A50002F923F924F925F926F927F928F929F928E
:104A6000AF92BF92CF92DF92EF92FF920F931F937C
:104A7000CF93DF93CDB7DEB76D970FB6F894DEBF57
:104A80000FBECDBF8D87762E882309F495C0209167
:104A9000D8163091D9168090DA169090DB16609176
:104AA000CC167091CD168091D2169091D316E091CC
:104AB0008713F09188131091041740910517009106
:104AC000BB1609835091C516F093371AE093361A36
:104AD0003093351A2093341A9092331A8092321AF6
:104AE0007093311A6093301A90932F1A80932E1A74
:104AF00010932C1A40932D1A198110932B1A50934E
:104B00002A1AEE0FEF2FEE1FFF0BF1952F015A948B
:104B1000220F232F221F330B31953A95A12CB12C54
:104B200075016401CC0CDD1CEE1CFF1CCC0CDD1CE3
:104B3000EE1CFF1CC80CD91CEA1CFB1C03E0F694FD
:104B4000E794D794C7940A95D1F7769567957695AB
:104B500067959695879596958795DE8A072F1127F5
:104B60001A870987092F11271C870B8786011127B0
:104B70001B8B0A8B5523E9F1523008F40CC2ECE090
:104B8000F0E089859A85BF010E94945709851A85AE
:104B9000081B190B1A8709878B859C85BF010E940A
:104BA00094570B851C85081B190B1C870B87198ACA
:104BB000188A1F861E8625C0A091361AB091371A12
:104BC000E0918713F09188132091D8163091D9166F
:104BD000AE17BF0709F4CBC18090DA169090DB16B0
:104BE0006091CC167091CD168091D2169091D3160B
:104BF00062CF8B0111271F870E878C011127198B1C
:104C0000088B1091C0161C8B509166185B8F4A83DD
:104C10001B827091A6167D8B612C08E10887A2018A
:104C2000662757FD6095762F4C835D836E837F8367
:104C3000B901882777FD8095982F6F8B788F898FA2
:104C40009A8F77FC1FC07614E9F0862D6394853027
:104C5000C1F76D960FB6F894DEBF0FBECDBFDF91E2
:104C6000CF911F910F91FF90EF90DF90CF90BF9069
:104C7000AF909F908F907F906F905F904F903F90FC
:104C80002F900895062D10E01D8F0C8FC801880FFE
:104C9000991F800F911F880F991F880F991F825CA1
:104CA000924FFC01E85EFE4F2081222309F41FC1D0
:104CB0003197108118872885022F10E008511109BB
:104CC000AB84BC84A00EB11EEC8DFD8DEE0FFF1FDA
:104CD000E458F94EC080D180EE24D7FCE094FE2C3D
:104CE0002C813D814E815F81C20ED31EE41EF51ED4
:104CF00089859A85800F911F97FD10C1462D6E857D
:104D00000E94EB16C80ED91EE11CF11CF7FC14C161
:104D1000C114D10431E0E306F1042CF0CC24CA9490
:104D2000DC2CE12CF12CEC8DFD8DEE0FFF1FE857F4
:104D3000F94E20803180442437FC4094542C2C813F
:104D40003D814E815F81220E331E441E551E2F89E8
:104D5000388D498D5A8D220E331E441E551E46E055
:104D6000460DC501B7FCE5C068890E94EB165201EB
:104D70004101880E991EA11CB11CB7FCD6C081143C
:104D8000910431E0A306B1042CF088248A94982C75
:104D9000A12CB12C8E8990E02981222339F0213079
:104DA00009F4DAC0800F911F97FDDEC04CE0460D7C
:104DB0006A890E94EB16EC8DFD8DEE0FFF1FEC56FD
:104DC000F94E20803180A101662757FD6095762F2E
:104DD000480F591F611D711D77FDA3C04115510575
:104DE00031E06307710524F04FEF5FEF60E070E0A2
:104DF0000C89011104C01B8D112309F48DC0862D6F
:104E00008595992787FD9095019660FE82C0EFEF0A
:104E1000FFEF8E9F90018F9F300D9E9F300D1124CC
:104E20000A811B81209FC001219F900D309F900D12
:104E30001124AA2797FDA095BA2FC80ED91EEA1EE5
:104E4000FB1EF7FC7DC0C114D10411E0E106F104A2
:104E50002CF0CC24CA94DC2CE12CF12C880E991E69
:104E6000AA1EBB1EB7FC74C08114910421E0A206E7
:104E7000B1042CF088248A94982CA12CB12C840F96
:104E8000951FA61FB71FB7FD5FC0009731E0A307AE
:104E9000B10524F08FEF9FEFA0E0B0E01C015D8929
:104EA000EC8DFD8DEE0FFF1F552331F1E85BF94EC0
:104EB000D182C082EC8DFD8DEE0FFF1FEC5AF94EB2
:104EC00091828082EC8DFD8DEE0FFF1FE05AF94E2E
:104ED0003182208209810111B8CEEC8DFD8DEE0F5B
:104EE000FF1FE45CF94E31822082862DAFCE1D85F6
:104EF0001F3F09F0AACEDFCEEC5DF94ED182C08211
:104F0000EC8DFD8DEE0FFF1FE05DF94E91828082EA
:104F1000E4CFE1E0F0E07DCF1A01C1CF80E090E086
:104F2000EDCE40E050E0BA0159CF812C912C5401D4
:104F300026CF80E090E018CFC12CD12C7601E8CEAE
:104F4000C12CD12C76017FCF80E090E0DC019DCF99
:104F5000812C912C540188CF17FD22C015950795FF
:104F6000800F911F97FF22CF80E090E01FCF8091AC
:104F7000341A9091351A8090DA169090DB16281723
:104F8000390789F06091CC167091CD168091D216B8
:104F90009091D31690CD198A188A1F861E8631CE1D
:104FA0000F5F1F4FDBCF8091321A9091331A6091BF
:104FB000CC167091CD168816990629F08091D216DC
:104FC0009091D31678CD8091301A9091311A68174C
:104FD0007907A1F78091D2169091D31640912E1A9D
:104FE00050912F1A8417950709F065CDE0900417AA
:104FF000F090051740912C1A50912D1AE416F506E1
:1050000049F0FD011E2D4F2D0091BB1609835091D3
:10501000C5165ACD1091BB16198340912B1A14173F
:1050200031F0FD011E2D4F2D5091C5164DCD5091E3
:10503000C51640912A1A541709F40BCEFD011E2DF6
:105040004F2D42CD25E02A95F1F7000086EC81BB7B
:10505000469A80EE87B997E09AB98DB915B880E481
:1050600088B91BB880E28EB987E481BB32E03A95FB
:10507000F1F700C026B149B19CB186EC81BB479ADB
:1050800087EE87B987EF8AB982EE8DB9822F869530
:10509000837050E8259F90011124822B242F2071CA
:1050A000822B242F269526952870822B242F269537
:1050B0002076822B990F9470892B90E075E07A9579
:1050C000F1F7000026EC21BB469A20EE27B937E025
:1050D0003AB92DB915B820E428B91BB820E22EB989
:1050E00027E421BB22E02A95F1F700C026B169B17F
:1050F0005CB136EC31BB479A47EE47B947EF4AB946
:1051000042EE4DB931BB469A15B830E438B91BB8F8
:1051100030E23EB937E831BB35E03A95F1F70000AF
:1051200036EC31BB469A15B830E438B91BB830E2DA
:105130003EB937E831BB75E07A95F1F7000036ECFF
:1051400031BB469A15B832E438B91BB830E43EB9E1
:1051500037E831BB35E03A95F1F7000036EC31BB6A
:10516000469A15B830E438B91BB83EB937E831BBB8
:1051700075E07A95F1F70000422F4695437070E88C
:10518000279F90011124422B262F2071422B262F7E
:10519000269526952870422B262F26952076422B81
:1051A000550F5470452B942B809590950895AF9290
:1051B000BF92CF92DF92EF92FF920F93CF93DF9344
:1051C0005C01C62ED12CC114D10401F132E4E32ECE
:1051D00030E1F32EC0E0D0E0BE016A0D7B1DCB01B3
:1051E000A0E0B0E0803E9105A105B10550F49F5FBD
:1051F000AF4FBF4F6627782F892F9A2FA7010E94A4
:1052000000F82196F394CC15DD0530F3DF91CF91B2
:105210000F91FF90EF90DF90CF90BF90AF900895E7
:105220000F931F93CF93DF931FB7F8940E947016CC
:1052300060914213709143132DE337E1AB01405E5F
:105240005E4FEB01D901FE0102E18D919D918193A9
:1052500091930150D1F7A4962C5D3F4FC417D50709
:1052600089F780915F189091601899838883FB017A
:10527000EE5DFE4F80915D1890915E189183808362
:105280003296F0934313E093421380916118808328
:10529000E0914213F0914313CF0101969093431391
:1052A00080934213809162188183E0914213F091C0
:1052B0004313CF010196909343138093421380913F
:1052C00064188183E0914213F0914313CF0101965A
:1052D0009093431380934213809163188183E091EC
:1052E0004213F0914313CF0101969093431380939F
:1052F0004213809165188183E0914213F09143132A
:10530000CF010196909343138093421380916618C6
:105310008183E0914213F0914313CF010196909362
:10532000431380934213809167188183E091421365
:10533000F0914313809106179091071790936A1884
:10534000809369189283818380916818992787FDDB
:105350009095948383833596F0934313E09342139F
:10536000E254F041E130F34020F463E08CED90E052
:105370001EDF1FBFDF91CF911F910F910895CF9333
:10538000DF93DFB7F8940E949A1684D61092EC133C
:105390001092EB13E7ECF3E18FEF9FEF1586148685
:1053A0008193919323E1E33DF207C1F78091EF13DD
:1053B00081608093EF135FB7F8943091EF1386EC20
:1053C00081BB469A432F440F832F8695242F267046
:1053D0002064932F991F9927991F292B942F907C34
:1053E0003071932B342F330F3072932B8270806681
:1053F00031E035B928B99BB98EB987E881BB5FBF69
:105400008FEF9FEF9093E2138093E1131092E413D8
:105410001092E313C0E062E16C0F8C2F0E946633A0
:10542000CF5FC630C1F78091EF138E7F8093EF136B
:105430005FB7F8943091EF1386EC81BB469A432F07
:10544000440F832F8695242F26702064932F991F55
:105450009927991F292B942F907C3071932B342FEF
:10546000330F3072932B8270806631E035B928B9E2
:105470009BB98EB987E881BB5FBF8091EF138860CD
:105480008093EF135FB7F8943091EF1386EC81BBF4
:10549000469A432F440F832F8695242F267020642D
:1054A000932F991F9927991F292B942F907C307146
:1054B000932B342F330F3072932B8270806631E040
:1054C00035B928B99BB98EB987E881BB5FBF109207
:1054D000E2131092E1138FEF9FEF9093E413809308
:1054E000E3136CE06C0F8C2F0E946633CF5FCC30DF
:1054F000C1F78091EF13877F8093EF135FB7F89424
:105500003091EF1386EC81BB469A432F440F832FD3
:105510008695242F26702064932F991F9927991F11
:10552000292B942F907C3071932B342F330F3072B2
:10553000932B8270806631E035B928B99BB98EB95A
:1055400087E881BB5FBF1092E2131092E1131092C3
:10555000E4131092E3138FEF9FEF9093EC1380937B
:10556000EB131092C8131092C7131092CA13109223
:10557000C9131092CC131092CB131092CE13109229
:10558000CD131092D0131092CF131092D213109209
:10559000D11366E06C0F8C2F0E946633CF5FC2314F
:1055A000C1F71092EC131092EB131092D4131092D7
:1055B000D3131092D6131092D5131092D8131092C1
:1055C000D7131092DA131092D9131092DC131092A1
:1055D000DB131092DE131092DD13AAD41092010D8A
:1055E0001092020D1092FE0C1092FD0C1092000D04
:1055F0001092FF0C1092070D13DE80E29EE4909350
:10560000E6138093E513DFBFDF91CF9108950F93E9
:10561000CF93DF934FB7F89486EC81BB469A80EE28
:1056200087B997E09AB98DB981E085B980E488B9E6
:105630001BB880E28EB987E481BB52E05A95F1F73E
:1056400000C086B139B12CB196EC91BB479AC82FF6
:10565000C695C37050E8859FC0011124C82B832FC5
:105660008071C82B832F869586958870C82B832FD1
:1056700086958076C82B220F2470C22B87EE87B9BF
:1056800087EF8AB982EE8DB94FBF8091C01688230B
:1056900011F0C5FF0FC08091381A8C2785FD2BC0F3
:1056A000809165188230B1F0C093381ADF91CF91A4
:1056B0000F9108958091381A85FFEFCF0E94422202
:1056C00086E0E6E9FEE0AAE0B7E101900D928A9556
:1056D000E1F7E6CFC0FFE8CF8091381A80FDE4CF34
:1056E0008091AD168E5F8093AD16C093381ADF910E
:1056F000CF910F9108958091391081111AC0C5FB87
:10570000DD27D0F981E0D8278D2F0E940834D111F0
:105710001AC000E0409163184F70406BE091601D2B
:10572000F091611D20E463E070E080E69DE1099561
:10573000B7CFC5FB662760F991E069270E948A35DB
:105740000E943239ADCF0FE7E5CF2F923F924F92B3
:105750005F926F927F928F929F92AF92BF92CF9201
:10576000DF92EF92FF920F931F93CF93DF93CDB70A
:10577000DEB766970FB6F894DEBF0FBECDBF382EEA
:1057800020902B17C0904513D0904613E0904713FC
:10579000F090481380910E0190910F012091120119
:1057A0003091130140901001509011015201A094CA
:1057B000B094AC01421B530B5C834B83A20160E0AD
:1057C00070E04D835E836F83788740911401509120
:1057D0001501609116017091170149875A876B87EF
:1057E0007C87B901680F791F7A836983CB01A0E0B8
:1057F000B0E08D879E87AF87B88B209118013091DC
:10580000190140911A0150911B01298B3A8B4B8B46
:105810005C8B90912A1762E7862E65E0962E0CEC41
:1058200016E1622C772467FC70949E8A8D8A1DC0D5
:10583000F301EE0FFF1FE759FC4E808091800E941C
:105840008D16882339F0A814B90408F092C0882472
:105850008A94982CD8018D929C9291E00E5F1F4FF4
:10586000ED89FE89E059F54011F1AD89BE898D9130
:10587000BE8BAD8B8F3F91F3311076C08215C1F294
:10588000E82FFF27E7FDF095B701A601082E04C019
:1058900076956795579547950A94D2F740FDC9CFFD
:1058A0000E5F1F4FED89FE89E059F540F1F69093A8
:1058B0002A172091081730910917ABEABAEA0E941B
:1058C000925C969587951FB7F8940E94AC1086EC71
:1058D00081BB469A81E085B983E488B980EF8BB9B2
:1058E00082EA8EB987E881BB35E03A95F1F700008E
:1058F00086EC81BB469A81E085B983E488B980E76C
:105900008BB982EA8EB987E881BB4AE04A95F1F704
:1059100000C086EC81BB469A81E085B983E488B9F2
:1059200080EF8BB982EA8EB987E881BB5AE05A953D
:10593000F1F700C01FBF66960FB6F894DEBF0FBE2A
:10594000CDBFDF91CF911F910F91FF90EF90DF902E
:10595000CF90BF90AF909F908F907F906F905F900F
:105960004F903F902F900895E82FFF27E7FDF09587
:1059700060CF84149504D0F0A40160E070E0EB8166
:10598000FC818E169F06A8F49A01AB018D819E8141
:10599000AF81B885281B390B4A0B5B0B69857A856B
:1059A0008B859C850E9471574C0154CF812C912C82
:1059B00051CFA981BA81A815B90520F0812C30E812
:1059C000932E48CF9A01AB018D859E85AF85B8890E
:1059D000281B390B4A0B5B0B69897A898B899C8957
:1059E0000E94715790584C0135CF8091EF138E7FF4
:1059F0009091AF16911181608093EF135FB7F89487
:105A00003091EF1386EC81BB469A432F440F832FCE
:105A10008695242F26702064932F991F9927991F0C
:105A2000292B942F907C3071932B342F330F3072AD
:105A3000932B8270806631E035B928B99BB98EB955
:105A400087E881BB5FBF8091EF13877F9091B2168B
:105A5000911188608093EF135FB7F8943091EF1342
:105A600086EC81BB469A432F440F832F8695242FC3
:105A700026702064932F991F9927991F292B942F03
:105A8000907C3071932B342F330F3072932B8270B4
:105A9000806631E035B928B99BB98EB987E881BBFA
:105AA0005FBF8091EF138D7F9091B016911182604E
:105AB0008093EF135FB7F8943091EF1386EC81BBBE
:105AC000469A432F440F832F8695242F26702064F7
:105AD000932F991F9927991F292B942F907C307110
